{
  "abi": [
    {
      "inputs": [
        {
          "internalType": "bytes16",
          "name": "_appId",
          "type": "bytes16"
        },
        {
          "internalType": "bool",
          "name": "_isImpersonationMode",
          "type": "bool"
        }
      ],
      "stateMutability": "nonpayable",
      "type": "constructor"
    },
    {
      "anonymous": false,
      "inputs": [
        {
          "indexed": true,
          "internalType": "address",
          "name": "depositor",
          "type": "address"
        },
        {
          "indexed": false,
          "internalType": "uint256",
          "name": "amount",
          "type": "uint256"
        }
      ],
      "name": "Deposit",
      "type": "event"
    },
    {
      "anonymous": false,
      "inputs": [
        {
          "components": [
            {
              "internalType": "bytes16",
              "name": "appId",
              "type": "bytes16"
            },
            {
              "internalType": "bytes16",
              "name": "namespace",
              "type": "bytes16"
            },
            {
              "internalType": "bytes32",
              "name": "version",
              "type": "bytes32"
            },
            {
              "components": [
                {
                  "internalType": "enum AuthType",
                  "name": "authType",
                  "type": "uint8"
                },
                {
                  "internalType": "bool",
                  "name": "isAnon",
                  "type": "bool"
                },
                {
                  "internalType": "uint256",
                  "name": "userId",
                  "type": "uint256"
                },
                {
                  "internalType": "bytes",
                  "name": "extraData",
                  "type": "bytes"
                },
                {
                  "internalType": "bytes",
                  "name": "proofData",
                  "type": "bytes"
                }
              ],
              "internalType": "struct VerifiedAuth[]",
              "name": "auths",
              "type": "tuple[]"
            },
            {
              "components": [
                {
                  "internalType": "enum ClaimType",
                  "name": "claimType",
                  "type": "uint8"
                },
                {
                  "internalType": "bytes16",
                  "name": "groupId",
                  "type": "bytes16"
                },
                {
                  "internalType": "bytes16",
                  "name": "groupTimestamp",
                  "type": "bytes16"
                },
                {
                  "internalType": "uint256",
                  "name": "value",
                  "type": "uint256"
                },
                {
                  "internalType": "bytes",
                  "name": "extraData",
                  "type": "bytes"
                },
                {
                  "internalType": "uint256",
                  "name": "proofId",
                  "type": "uint256"
                },
                {
                  "internalType": "bytes",
                  "name": "proofData",
                  "type": "bytes"
                }
              ],
              "internalType": "struct VerifiedClaim[]",
              "name": "claims",
              "type": "tuple[]"
            },
            {
              "internalType": "bytes",
              "name": "signedMessage",
              "type": "bytes"
            }
          ],
          "indexed": false,
          "internalType": "struct SismoConnectVerifiedResult",
          "name": "result",
          "type": "tuple"
        }
      ],
      "name": "ResponseVerified",
      "type": "event"
    },
    {
      "anonymous": false,
      "inputs": [
        {
          "indexed": true,
          "internalType": "address",
          "name": "from",
          "type": "address"
        },
        {
          "indexed": true,
          "internalType": "address",
          "name": "to",
          "type": "address"
        },
        {
          "indexed": false,
          "internalType": "uint256",
          "name": "amount",
          "type": "uint256"
        }
      ],
      "name": "Transfer",
      "type": "event"
    },
    {
      "anonymous": false,
      "inputs": [
        {
          "indexed": true,
          "internalType": "address",
          "name": "withdrawer",
          "type": "address"
        },
        {
          "indexed": false,
          "internalType": "uint256",
          "name": "amount",
          "type": "uint256"
        }
      ],
      "name": "Withdrawal",
      "type": "event"
    },
    {
      "inputs": [],
      "name": "ADDRESSES_PROVIDER_V2",
      "outputs": [
        {
          "internalType": "contract IAddressesProvider",
          "name": "",
          "type": "address"
        }
      ],
      "stateMutability": "view",
      "type": "function"
    },
    {
      "inputs": [],
      "name": "APP_ID",
      "outputs": [
        {
          "internalType": "bytes16",
          "name": "",
          "type": "bytes16"
        }
      ],
      "stateMutability": "view",
      "type": "function"
    },
    {
      "inputs": [],
      "name": "IS_IMPERSONATION_MODE",
      "outputs": [
        {
          "internalType": "bool",
          "name": "",
          "type": "bool"
        }
      ],
      "stateMutability": "view",
      "type": "function"
    },
    {
      "inputs": [],
      "name": "SISMO_CONNECT_LIB_VERSION",
      "outputs": [
        {
          "internalType": "uint256",
          "name": "",
          "type": "uint256"
        }
      ],
      "stateMutability": "view",
      "type": "function"
    },
    {
      "inputs": [],
      "name": "config",
      "outputs": [
        {
          "components": [
            {
              "internalType": "bytes16",
              "name": "appId",
              "type": "bytes16"
            },
            {
              "components": [
                {
                  "internalType": "bool",
                  "name": "isImpersonationMode",
                  "type": "bool"
                }
              ],
              "internalType": "struct VaultConfig",
              "name": "vault",
              "type": "tuple"
            }
          ],
          "internalType": "struct SismoConnectConfig",
          "name": "",
          "type": "tuple"
        }
      ],
      "stateMutability": "view",
      "type": "function"
    },
    {
      "inputs": [],
      "name": "deposit",
      "outputs": [],
      "stateMutability": "payable",
      "type": "function"
    },
    {
      "inputs": [
        {
          "internalType": "bytes",
          "name": "_response",
          "type": "bytes"
        }
      ],
      "name": "getBalance",
      "outputs": [
        {
          "internalType": "uint256",
          "name": "",
          "type": "uint256"
        }
      ],
      "stateMutability": "view",
      "type": "function"
    },
    {
      "inputs": [
        {
          "internalType": "uint256",
          "name": "_amount",
          "type": "uint256"
        },
        {
          "internalType": "address",
          "name": "_to",
          "type": "address"
        },
        {
          "internalType": "bytes",
          "name": "_response",
          "type": "bytes"
        }
      ],
      "name": "privateTransfer",
      "outputs": [],
      "stateMutability": "nonpayable",
      "type": "function"
    },
    {
      "inputs": [
        {
          "internalType": "uint256",
          "name": "_amount",
          "type": "uint256"
        },
        {
          "internalType": "bytes",
          "name": "_response",
          "type": "bytes"
        }
      ],
      "name": "withdraw",
      "outputs": [],
      "stateMutability": "nonpayable",
      "type": "function"
    }
  ],
  "bytecode": {
    "object": "0x6101606040523480156200001257600080fd5b506040516200252e3803806200252e83398101604081905262000035916200046e565b6200004182826200040c565b80516001600160801b0319166101205260208082015151151561014052604080518082018252601981527f7369736d6f436f6e6e65637456657269666965722d76312e3200000000000000928101929092525163349f642f60e11b8152733cd5334eb64ebbd4003b72022cc25465f1bfcee69163693ec85e91620000c99190600401620004bd565b602060405180830381865afa158015620000e7573d6000803e3d6000fd5b505050506040513d601f19601f820116820180604052508101906200010d91906200050d565b6001600160a01b0316608052604080518082018252601781527f61757468526571756573744275696c6465722d76312e310000000000000000006020820152905163349f642f60e11b8152733cd5334eb64ebbd4003b72022cc25465f1bfcee69163693ec85e91620001839190600401620004bd565b602060405180830381865afa158015620001a1573d6000803e3d6000fd5b505050506040513d601f19601f82011682018060405250810190620001c791906200050d565b6001600160a01b031660a052604080518082018252601881527f636c61696d526571756573744275696c6465722d76312e3100000000000000006020820152905163349f642f60e11b8152733cd5334eb64ebbd4003b72022cc25465f1bfcee69163693ec85e916200023d9190600401620004bd565b602060405180830381865afa1580156200025b573d6000803e3d6000fd5b505050506040513d601f19601f820116820180604052508101906200028191906200050d565b6001600160a01b031660c052604080518082018252601581527f7369676e61747572654275696c6465722d76312e3100000000000000000000006020820152905163349f642f60e11b8152733cd5334eb64ebbd4003b72022cc25465f1bfcee69163693ec85e91620002f79190600401620004bd565b602060405180830381865afa15801562000315573d6000803e3d6000fd5b505050506040513d601f19601f820116820180604052508101906200033b91906200050d565b6001600160a01b031660e052604080518082018252601381527f726571756573744275696c6465722d76312e31000000000000000000000000006020820152905163349f642f60e11b8152733cd5334eb64ebbd4003b72022cc25465f1bfcee69163693ec85e91620003b19190600401620004bd565b602060405180830381865afa158015620003cf573d6000803e3d6000fd5b505050506040513d601f19601f82011682018060405250810190620003f591906200050d565b6001600160a01b031661010052506200053f915050565b62000433604080518082018252600080825282516020818101909452908152909182015290565b506040805180820182526001600160801b03199390931683528051602080820183526000909152815180820190925291151581529082015290565b600080604083850312156200048257600080fd5b82516001600160801b0319811681146200049b57600080fd5b60208401519092508015158114620004b257600080fd5b809150509250929050565b600060208083528351808285015260005b81811015620004ec57858101830151858201604001528201620004ce565b506000604082860101526040601f19601f8301168501019250505092915050565b6000602082840312156200052057600080fd5b81516001600160a01b03811681146200053857600080fd5b9392505050565b60805160a05160c05160e051610100516101205161014051611f89620005a560003960008181610146015261049e01526000818161018a015261047d01526000610b060152600061096801526000505060006108bf01526000610a430152611f896000f3fe6080604052600436106100865760003560e01c8063a183dc2711610059578063a183dc2714610134578063c187bbc114610178578063c9512d99146101c5578063d0e30db0146101e8578063d0fc3501146101f057600080fd5b8063030ba25d1461008b578063249c06d5146100ad57806346916301146100cd57806379502c5514610112575b600080fd5b34801561009757600080fd5b506100ab6100a6366004610d2f565b610210565b005b3480156100b957600080fd5b506100ab6100c8366004610d75565b61032b565b3480156100d957600080fd5b506100f5733cd5334eb64ebbd4003b72022cc25465f1bfcee681565b6040516001600160a01b0390911681526020015b60405180910390f35b34801561011e57600080fd5b50610127610452565b6040516101099190610dd9565b34801561014057600080fd5b506101687f000000000000000000000000000000000000000000000000000000000000000081565b6040519015158152602001610109565b34801561018457600080fd5b506101ac7f000000000000000000000000000000000000000000000000000000000000000081565b6040516001600160801b03199091168152602001610109565b3480156101d157600080fd5b506101da600281565b604051908152602001610109565b6100ab6104c7565b3480156101fc57600080fd5b506101da61020b366004610dfd565b610572565b600082116102655760405162461bcd60e51b815260206004820152601f60248201527f416d6f756e742073686f756c642062652067726561746572207468616e20300060448201526064015b60405180910390fd5b60006102708261060d565b9050600061027f82600361070e565b9050836000808360008151811061029857610298610e31565b6020026020010151815260200190815260200160002060008282546102bd9190610e5d565b9091555050604051339085156108fc029086906000818181858888f193505050501580156102ef573d6000803e3d6000fd5b5060405184815233907f7fcf532c15f0a6db0bd6d0e038bea71d30d808c7d98cb3bf7268a95bf5081b659060200160405180910390a250505050565b336000908152602081905260409020548311156103815760405162461bcd60e51b8152602060048201526014602482015273496e73756666696369656e742062616c616e636560601b604482015260640161025c565b600061038c8261060d565b9050600061039b82600361070e565b905084600080836000815181106103b4576103b4610e31565b6020026020010151815260200190815260200160002060008282546103d99190610e5d565b90915550506001600160a01b03841660009081526020819052604081208054879290610406908490610e70565b90915550506040518581526001600160a01b0385169033907fddf252ad1be2c89b69c2b068fc378daa952ba7f163c4a11628f55a4df523b3ef9060200160405180910390a35050505050565b610478604080518082018252600080825282516020818101909452908152909182015290565b6104c27f00000000000000000000000000000000000000000000000000000000000000007f0000000000000000000000000000000000000000000000000000000000000000610812565b905090565b600034116105175760405162461bcd60e51b815260206004820152601f60248201527f416d6f756e742073686f756c642062652067726561746572207468616e203000604482015260640161025c565b3360009081526020819052604081208054349290610536908490610e70565b909155505060405134815233907fe1fffcc4923d04b559f4d29a8bfc6cda04eb5b0d3c460751c2402c5c5cc9109c9060200160405180910390a2565b60008061057e8361060d565b9050600061058d82600361070e565b905060008151116105d75760405162461bcd60e51b8152602060048201526014602482015273139bc8115593481858d8dbdd5b9d08199bdd5b9960621b604482015260640161025c565b600080826000815181106105ed576105ed610e31565b602002602001015181526020019081526020016000205492505050919050565b6040805160c0810182526000808252602082018190529181019190915260608082018190526080820181905260a0820152604080516001808252818301909252600091816020015b6040805160c081018252600080825260208083018290529282018190526060808301829052608083019190915260a082015282526000199092019101816106555790505090506106a56003610880565b816000815181106106b8576106b8610e31565b602002602001018190525060006107068483610701336040516020016106ed91906001600160a01b0391909116815260200190565b604051602081830303815290604052610941565b6109ea565b949350505050565b606060008360600151516001600160401b0381111561072f5761072f610bde565b604051908082528060200260200182016040528015610758578160200160208202803683370190505b50905060005b8460600151518110156108085783600581111561077d5761077d610e83565b8560600151828151811061079357610793610e31565b60200260200101516000015160058111156107b0576107b0610e83565b036107f657846060015181815181106107cb576107cb610e31565b6020026020010151604001518282815181106107e9576107e9610e31565b6020026020010181815250505b8061080081610e99565b91505061075e565b5090505b92915050565b610838604080518082018252600080825282516020818101909452908152909182015290565b6040518060400160405280846001600160801b031916815260200161087784604080516020808201835260009091528151908101909152901515815290565b90529392505050565b6040805160c0810182526000808252602082018190528183018190526060808301829052608083019190915260a08201529051633a0ba6ff60e01b81527f00000000000000000000000000000000000000000000000000000000000000006001600160a01b031690633a0ba6ff906108fc908590600401610ec6565b600060405180830381865afa158015610919573d6000803e3d6000fd5b505050506040513d6000823e601f3d908101601f1916820160405261080c9190810190610ff6565b604080516060808201835280825260006020830152818301529051631a0d7ccb60e21b81527f00000000000000000000000000000000000000000000000000000000000000006001600160a01b031690636835f32c906109a5908590600401611056565b600060405180830381865afa1580156109c2573d6000803e3d6000fd5b505050506040513d6000823e601f3d908101601f1916820160405261080c9190810190611103565b6040805160c0810182526000808252602082018190529181019190915260608082018190526080820181905260a0820152600084806020019051810190610a31919061138e565b90506000610a3f8585610ae7565b90507f00000000000000000000000000000000000000000000000000000000000000006001600160a01b03166312b037ff8383610a7a610452565b6040518463ffffffff1660e01b8152600401610a98939291906117fb565b600060405180830381865afa158015610ab5573d6000803e3d6000fd5b505050506040513d6000823e601f3d908101601f19168201604052610add9190810190611bfd565b9695505050505050565b610aef610b8e565b604051632ceb1e8d60e01b81526001600160a01b037f00000000000000000000000000000000000000000000000000000000000000001690632ceb1e8d90610b3d9086908690600401611cdd565b600060405180830381865afa158015610b5a573d6000803e3d6000fd5b505050506040513d6000823e601f3d908101601f19168201604052610b829190810190611e1d565b9392505050565b905290565b604051806080016040528060006001600160801b03191681526020016060815260200160608152602001610b89604051806060016040528060608152602001600015158152602001606081525090565b634e487b7160e01b600052604160045260246000fd5b60405160c081016001600160401b0381118282101715610c1657610c16610bde565b60405290565b60405160a081016001600160401b0381118282101715610c1657610c16610bde565b60405160e081016001600160401b0381118282101715610c1657610c16610bde565b604051608081016001600160401b0381118282101715610c1657610c16610bde565b604051601f8201601f191681016001600160401b0381118282101715610caa57610caa610bde565b604052919050565b60006001600160401b03821115610ccb57610ccb610bde565b50601f01601f191660200190565b600082601f830112610cea57600080fd5b8135610cfd610cf882610cb2565b610c82565b818152846020838601011115610d1257600080fd5b816020850160208301376000918101602001919091529392505050565b60008060408385031215610d4257600080fd5b8235915060208301356001600160401b03811115610d5f57600080fd5b610d6b85828601610cd9565b9150509250929050565b600080600060608486031215610d8a57600080fd5b8335925060208401356001600160a01b0381168114610da857600080fd5b915060408401356001600160401b03811115610dc357600080fd5b610dcf86828701610cd9565b9150509250925092565b81516001600160801b0319168152602080830151511515908201526040810161080c565b600060208284031215610e0f57600080fd5b81356001600160401b03811115610e2557600080fd5b61070684828501610cd9565b634e487b7160e01b600052603260045260246000fd5b634e487b7160e01b600052601160045260246000fd5b8181038181111561080c5761080c610e47565b8082018082111561080c5761080c610e47565b634e487b7160e01b600052602160045260246000fd5b600060018201610eab57610eab610e47565b5060010190565b60068110610ec257610ec2610e83565b9052565b6020810161080c8284610eb2565b805160068110610ee357600080fd5b919050565b80518015158114610ee357600080fd5b60005b83811015610f13578181015183820152602001610efb565b50506000910152565b600082601f830112610f2d57600080fd5b8151610f3b610cf882610cb2565b818152846020838601011115610f5057600080fd5b610706826020830160208701610ef8565b600060c08284031215610f7357600080fd5b610f7b610bf4565b9050610f8682610ed4565b815260208201516020820152610f9e60408301610ee8565b6040820152610faf60608301610ee8565b6060820152610fc060808301610ee8565b608082015260a08201516001600160401b03811115610fde57600080fd5b610fea84828501610f1c565b60a08301525092915050565b60006020828403121561100857600080fd5b81516001600160401b0381111561101e57600080fd5b61070684828501610f61565b60008151808452611042816020860160208601610ef8565b601f01601f19169290920160200192915050565b602081526000610b82602083018461102a565b60006060828403121561107b57600080fd5b604051606081016001600160401b03828210818311171561109e5761109e610bde565b8160405282935084519150808211156110b657600080fd5b6110c286838701610f1c565b83526110d060208601610ee8565b602084015260408501519150808211156110e957600080fd5b506110f685828601610f1c565b6040830152505092915050565b60006020828403121561111557600080fd5b81516001600160401b0381111561112b57600080fd5b61070684828501611069565b80516001600160801b031981168114610ee357600080fd5b60006001600160401b0382111561116857611168610bde565b5060051b60200190565b600082601f83011261118357600080fd5b81516020611193610cf88361114f565b82815260059290921b840181019181810190868411156111b257600080fd5b8286015b8481101561126a5780516001600160401b03808211156111d65760008081fd5b9088019060a0828b03601f19018113156111f05760008081fd5b6111f8610c1c565b611203888501610ed4565b81526040611212818601610ee8565b898301526060611223818701610ee8565b8284015260809150818601518184015250828501519250838311156112485760008081fd5b6112568d8a85880101610f1c565b9082015286525050509183019183016111b6565b509695505050505050565b805160058110610ee357600080fd5b600082601f83011261129557600080fd5b815160206112a5610cf88361114f565b82815260059290921b840181019181810190868411156112c457600080fd5b8286015b8481101561126a5780516001600160401b03808211156112e85760008081fd5b9088019060c0828b03601f19018113156113025760008081fd5b61130a610bf4565b611315888501611275565b81526040611324818601611137565b898301526060611335818701611137565b8284015260809150611348828701610ee8565b9083015260a0858101518284015292850151928484111561136b57600091508182fd5b6113798e8b86890101610f1c565b908301525086525050509183019183016112c8565b600060208083850312156113a157600080fd5b82516001600160401b03808211156113b857600080fd5b9084019060a082870312156113cc57600080fd5b6113d4610c1c565b6113dd83611137565b81526113ea848401611137565b848201526040830151604082015260608301518281111561140a57600080fd5b61141688828601610f1c565b6060830152506080808401518381111561142f57600080fd5b80850194505087601f85011261144457600080fd5b8351611452610cf88261114f565b81815260059190911b8501860190868101908a83111561147157600080fd5b8787015b838110156115595780518781111561148d5760008081fd5b880160a0818e03601f190112156114a45760008081fd5b6114ac610c1c565b8a820151898111156114be5760008081fd5b6114cc8f8d83860101611172565b8252506040820151898111156114e25760008081fd5b6114f08f8d83860101611284565b8c830152506060820151604082015286820151898111156115115760008081fd5b61151f8f8d83860101610f1c565b60608301525060a0820151898111156115385760008081fd5b6115468f8d83860101610f1c565b8289015250845250918801918801611475565b50928401929092525090979650505050505050565b60058110610ec257610ec2610e83565b600081518084526020808501808196508360051b8101915082860160005b8581101561161b578284038952815160c06115b886835161156e565b818701516001600160801b031990811687890152604080840151909116908701526060808301511515908701526080808301519087015260a0918201519186018190526116078187018361102a565b9a87019a955050509084019060010161159c565b5091979650505050505050565b600081518084526020808501808196508360051b8101915082860160005b8581101561161b578284038952815160c0611662868351610eb2565b818701518688015260408083015115159087015260608083015115159087015260808083015115159087015260a0918201519186018190526116a68187018361102a565b9a87019a9550505090840190600101611646565b60008151606084526116cf606085018261102a565b9050602083015115156020850152604083015184820360408601526116f4828261102a565b95945050505050565b600060806001600160801b0319808451168552602080850151838288015261172784880182611628565b9050604080870151888303828a01528281518085528585019150858160051b860101868401935060005b828110156117d157601f19878303018452845160e061177184835161156e565b818a01518b16848b0152878201518b1688850152606080830151908501528b82015115158c85015260a08083015115159085015260c0918201519184018190526117bd8185018361102a565b968a0196958a019593505050600101611751565b5060608b015198508b810360608d01526117eb818a6116ba565b9c9b505050505050505050505050565b600060808083526001600160801b0319808751168285015260208088015182811660a087015250604088015191508160c08601526060880151915060a060e086015261184b61012086018361102a565b88840151868203607f1901610100880152805180835291935082019082840190600581901b8501840160005b8281101561198457601f198783030184528451805160a0808552815190850181905260c0600582901b86018101928a01919086019060005b818110156119195760bf1988860301835283516118cd868251610eb2565b8c81015115158d870152604081015115156040870152606081015160608701528e810151905060a08f87015261190660a087018261102a565b955050928b0192918b01916001016118af565b505050508782015184820389860152611932828261157e565b9150506040820151604085015260608201518482036060860152611956828261102a565b9150508982015191508381038a850152611970818361102a565b968801969588019593505050600101611877565b50888103858a0152611996818c6116fd565b8a516001600160801b03191660408b015260208b015151151560608b015297506107069650505050505050565b600082601f8301126119d457600080fd5b815160206119e4610cf88361114f565b82815260059290921b84018101918181019086841115611a0357600080fd5b8286015b8481101561126a5780516001600160401b0380821115611a275760008081fd5b9088019060a0828b03601f1901811315611a415760008081fd5b611a49610c1c565b611a54888501610ed4565b81526040611a63818601610ee8565b8983015260608086015182840152608091508186015185811115611a875760008081fd5b611a958f8c838a0101610f1c565b82850152505082850151925083831115611aaf5760008081fd5b611abd8d8a85880101610f1c565b908201528652505050918301918301611a07565b600082601f830112611ae257600080fd5b81516020611af2610cf88361114f565b82815260059290921b84018101918181019086841115611b1157600080fd5b8286015b8481101561126a5780516001600160401b0380821115611b355760008081fd5b9088019060e0828b03601f1901811315611b4f5760008081fd5b611b57610c3e565b611b62888501611275565b81526040611b71818601611137565b898301526060611b82818701611137565b828401526080915081860151818401525060a08086015185811115611ba75760008081fd5b611bb58f8c838a0101610f1c565b838501525060c0915081860151818401525082850151925083831115611bdb5760008081fd5b611be98d8a85880101610f1c565b908201528652505050918301918301611b15565b600060208284031215611c0f57600080fd5b81516001600160401b0380821115611c2657600080fd5b9083019060c08286031215611c3a57600080fd5b611c42610bf4565b611c4b83611137565b8152611c5960208401611137565b602082015260408301516040820152606083015182811115611c7a57600080fd5b611c86878286016119c3565b606083015250608083015182811115611c9e57600080fd5b611caa87828601611ad1565b60808301525060a083015182811115611cc257600080fd5b611cce87828601610f1c565b60a08301525095945050505050565b604081526000611cf06040830185611628565b82810360208401526116f481856116ba565b600082601f830112611d1357600080fd5b81516020611d23610cf88361114f565b82815260059290921b84018101918181019086841115611d4257600080fd5b8286015b8481101561126a5780516001600160401b0380821115611d665760008081fd5b9088019060e0828b03601f1901811315611d805760008081fd5b611d88610c3e565b611d93888501611275565b81526040611da2818601611137565b898301526060611db3818701611137565b828401526080915081860151818401525060a0611dd1818701610ee8565b8284015260c09150611de4828701610ee8565b90830152918401519183831115611dfb5760008081fd5b611e098d8a85880101610f1c565b908201528652505050918301918301611d46565b60006020808385031215611e3057600080fd5b82516001600160401b0380821115611e4757600080fd5b9084019060808287031215611e5b57600080fd5b611e63610c60565b611e6c83611137565b81528383015182811115611e7f57600080fd5b8301601f81018813611e9057600080fd5b8051611e9e610cf88261114f565b81815260059190911b8201860190868101908a831115611ebd57600080fd5b8784015b83811015611ef557805187811115611ed95760008081fd5b611ee78d8b83890101610f61565b845250918801918801611ec1565b508088860152505050506040830151935081841115611f1357600080fd5b611f1f87858501611d02565b60408201526060830151935081841115611f3857600080fd5b611f4487858501611069565b6060820152969550505050505056fea2646970667358221220ffda56fb69663f314d987ed84161b89a2f4095979fbe361ab37c6be1849d836a64736f6c63430008150033",
    "linkReferences": {}
  },
  "methodIdentifiers": {
    "ADDRESSES_PROVIDER_V2()": "46916301",
    "APP_ID()": "c187bbc1",
    "IS_IMPERSONATION_MODE()": "a183dc27",
    "SISMO_CONNECT_LIB_VERSION()": "c9512d99",
    "config()": "79502c55",
    "deposit()": "d0e30db0",
    "getBalance(bytes)": "d0fc3501",
    "privateTransfer(uint256,address,bytes)": "249c06d5",
    "withdraw(uint256,bytes)": "030ba25d"
  },
  "id": 24
}