{
  "abi": [
    {
      "inputs": [
        {
          "components": [
            {
              "internalType": "bytes16",
              "name": "appId",
              "type": "bytes16"
            },
            {
              "components": [
                {
                  "internalType": "bool",
                  "name": "isImpersonationMode",
                  "type": "bool"
                }
              ],
              "internalType": "struct VaultConfig",
              "name": "vault",
              "type": "tuple"
            }
          ],
          "internalType": "struct SismoConnectConfig",
          "name": "_config",
          "type": "tuple"
        }
      ],
      "stateMutability": "nonpayable",
      "type": "constructor"
    },
    {
      "inputs": [],
      "name": "ADDRESSES_PROVIDER_V2",
      "outputs": [
        {
          "internalType": "contract IAddressesProvider",
          "name": "",
          "type": "address"
        }
      ],
      "stateMutability": "view",
      "type": "function"
    },
    {
      "inputs": [],
      "name": "APP_ID",
      "outputs": [
        {
          "internalType": "bytes16",
          "name": "",
          "type": "bytes16"
        }
      ],
      "stateMutability": "view",
      "type": "function"
    },
    {
      "inputs": [],
      "name": "IS_IMPERSONATION_MODE",
      "outputs": [
        {
          "internalType": "bool",
          "name": "",
          "type": "bool"
        }
      ],
      "stateMutability": "view",
      "type": "function"
    },
    {
      "inputs": [],
      "name": "SISMO_CONNECT_LIB_VERSION",
      "outputs": [
        {
          "internalType": "uint256",
          "name": "",
          "type": "uint256"
        }
      ],
      "stateMutability": "view",
      "type": "function"
    },
    {
      "inputs": [],
      "name": "config",
      "outputs": [
        {
          "components": [
            {
              "internalType": "bytes16",
              "name": "appId",
              "type": "bytes16"
            },
            {
              "components": [
                {
                  "internalType": "bool",
                  "name": "isImpersonationMode",
                  "type": "bool"
                }
              ],
              "internalType": "struct VaultConfig",
              "name": "vault",
              "type": "tuple"
            }
          ],
          "internalType": "struct SismoConnectConfig",
          "name": "",
          "type": "tuple"
        }
      ],
      "stateMutability": "view",
      "type": "function"
    }
  ],
  "bytecode": {
    "object": "0x61016060405234801561001157600080fd5b5060405161084a38038061084a83398101604081905261003091610414565b80516001600160801b0319166101205260208082015151151561014052604080518082018252601981527f7369736d6f436f6e6e65637456657269666965722d76312e3200000000000000928101929092525163349f642f60e11b8152733cd5334eb64ebbd4003b72022cc25465f1bfcee69163693ec85e916100b691906004016104b4565b602060405180830381865afa1580156100d3573d6000803e3d6000fd5b505050506040513d601f19601f820116820180604052508101906100f79190610502565b6001600160a01b0316608052604080518082018252601781527f61757468526571756573744275696c6465722d76312e310000000000000000006020820152905163349f642f60e11b8152733cd5334eb64ebbd4003b72022cc25465f1bfcee69163693ec85e9161016b91906004016104b4565b602060405180830381865afa158015610188573d6000803e3d6000fd5b505050506040513d601f19601f820116820180604052508101906101ac9190610502565b6001600160a01b031660a052604080518082018252601881527f636c61696d526571756573744275696c6465722d76312e3100000000000000006020820152905163349f642f60e11b8152733cd5334eb64ebbd4003b72022cc25465f1bfcee69163693ec85e9161022091906004016104b4565b602060405180830381865afa15801561023d573d6000803e3d6000fd5b505050506040513d601f19601f820116820180604052508101906102619190610502565b6001600160a01b031660c052604080518082018252601581527f7369676e61747572654275696c6465722d76312e3100000000000000000000006020820152905163349f642f60e11b8152733cd5334eb64ebbd4003b72022cc25465f1bfcee69163693ec85e916102d591906004016104b4565b602060405180830381865afa1580156102f2573d6000803e3d6000fd5b505050506040513d601f19601f820116820180604052508101906103169190610502565b6001600160a01b031660e052604080518082018252601381527f726571756573744275696c6465722d76312e31000000000000000000000000006020820152905163349f642f60e11b8152733cd5334eb64ebbd4003b72022cc25465f1bfcee69163693ec85e9161038a91906004016104b4565b602060405180830381865afa1580156103a7573d6000803e3d6000fd5b505050506040513d601f19601f820116820180604052508101906103cb9190610502565b6001600160a01b03166101005250610532565b604051602081016001600160401b038111828210171561040e57634e487b7160e01b600052604160045260246000fd5b60405290565b6000818303604081121561042757600080fd5b604080519081016001600160401b038111828210171561045757634e487b7160e01b600052604160045260246000fd5b60405283516001600160801b03198116811461047257600080fd5b81526020601f198301121561048657600080fd5b61048e6103de565b9150602084015180151581146104a357600080fd5b825260208101919091529392505050565b600060208083528351808285015260005b818110156104e1578581018301518582016040015282016104c5565b506000604082860101526040601f19601f8301168501019250505092915050565b60006020828403121561051457600080fd5b81516001600160a01b038116811461052b57600080fd5b9392505050565b60805160a05160c05160e0516101005161012051610140516102c061058a6000396000818160fe01526101ea01526000818161013501526101c9015260005050600050506000505060005050600050506102c06000f3fe608060405234801561001057600080fd5b50600436106100675760003560e01c8063a183dc2711610050578063a183dc27146100f9578063c187bbc114610130578063c9512d991461018857600080fd5b8063469163011461006c57806379502c55146100b1575b600080fd5b610087733cd5334eb64ebbd4003b72022cc25465f1bfcee681565b60405173ffffffffffffffffffffffffffffffffffffffff90911681526020015b60405180910390f35b6100b961019e565b6040805182517fffffffffffffffffffffffffffffffff0000000000000000000000000000000016815260209283015151151592810192909252016100a8565b6101207f000000000000000000000000000000000000000000000000000000000000000081565b60405190151581526020016100a8565b6101577f000000000000000000000000000000000000000000000000000000000000000081565b6040517fffffffffffffffffffffffffffffffff0000000000000000000000000000000090911681526020016100a8565b610190600281565b6040519081526020016100a8565b6101c4604080518082018252600080825282516020818101909452908152909182015290565b61020e7f00000000000000000000000000000000000000000000000000000000000000007f0000000000000000000000000000000000000000000000000000000000000000610213565b905090565b610239604080518082018252600080825282516020818101909452908152909182015290565b6040518060400160405280846fffffffffffffffffffffffffffffffff1916815260200161028184604080516020808201835260009091528151908101909152901515815290565b9052939250505056fea26469706673582212202ebce9991aba7c9aa16bffb9506643fd45161d824fb0a022ff93fd0692fa8af064736f6c63430008150033",
    "linkReferences": {}
  },
  "methodIdentifiers": {
    "ADDRESSES_PROVIDER_V2()": "46916301",
    "APP_ID()": "c187bbc1",
    "IS_IMPERSONATION_MODE()": "a183dc27",
    "SISMO_CONNECT_LIB_VERSION()": "c9512d99",
    "config()": "79502c55"
  },
  "id": 1
}