{
  "abi": [
    {
      "inputs": [],
      "name": "DEFAULT_SIGNATURE_REQUEST_EXTRA_DATA",
      "outputs": [
        {
          "internalType": "bytes",
          "name": "",
          "type": "bytes"
        }
      ],
      "stateMutability": "view",
      "type": "function"
    },
    {
      "inputs": [],
      "name": "DEFAULT_SIGNATURE_REQUEST_IS_SELECTABLE_BY_USER",
      "outputs": [
        {
          "internalType": "bool",
          "name": "",
          "type": "bool"
        }
      ],
      "stateMutability": "view",
      "type": "function"
    },
    {
      "inputs": [],
      "name": "DEFAULT_SIGNATURE_REQUEST_MESSAGE",
      "outputs": [
        {
          "internalType": "bytes",
          "name": "",
          "type": "bytes"
        }
      ],
      "stateMutability": "view",
      "type": "function"
    },
    {
      "inputs": [
        {
          "internalType": "bytes",
          "name": "message",
          "type": "bytes"
        },
        {
          "internalType": "bool",
          "name": "isSelectableByUser",
          "type": "bool"
        },
        {
          "internalType": "bytes",
          "name": "extraData",
          "type": "bytes"
        }
      ],
      "name": "build",
      "outputs": [
        {
          "components": [
            {
              "internalType": "bytes",
              "name": "message",
              "type": "bytes"
            },
            {
              "internalType": "bool",
              "name": "isSelectableByUser",
              "type": "bool"
            },
            {
              "internalType": "bytes",
              "name": "extraData",
              "type": "bytes"
            }
          ],
          "internalType": "struct SignatureRequest",
          "name": "",
          "type": "tuple"
        }
      ],
      "stateMutability": "pure",
      "type": "function"
    },
    {
      "inputs": [
        {
          "internalType": "bool",
          "name": "isSelectableByUser",
          "type": "bool"
        }
      ],
      "name": "build",
      "outputs": [
        {
          "components": [
            {
              "internalType": "bytes",
              "name": "message",
              "type": "bytes"
            },
            {
              "internalType": "bool",
              "name": "isSelectableByUser",
              "type": "bool"
            },
            {
              "internalType": "bytes",
              "name": "extraData",
              "type": "bytes"
            }
          ],
          "internalType": "struct SignatureRequest",
          "name": "",
          "type": "tuple"
        }
      ],
      "stateMutability": "pure",
      "type": "function"
    },
    {
      "inputs": [
        {
          "internalType": "bytes",
          "name": "message",
          "type": "bytes"
        },
        {
          "internalType": "bytes",
          "name": "extraData",
          "type": "bytes"
        }
      ],
      "name": "build",
      "outputs": [
        {
          "components": [
            {
              "internalType": "bytes",
              "name": "message",
              "type": "bytes"
            },
            {
              "internalType": "bool",
              "name": "isSelectableByUser",
              "type": "bool"
            },
            {
              "internalType": "bytes",
              "name": "extraData",
              "type": "bytes"
            }
          ],
          "internalType": "struct SignatureRequest",
          "name": "",
          "type": "tuple"
        }
      ],
      "stateMutability": "pure",
      "type": "function"
    },
    {
      "inputs": [
        {
          "internalType": "bytes",
          "name": "message",
          "type": "bytes"
        },
        {
          "internalType": "bool",
          "name": "isSelectableByUser",
          "type": "bool"
        }
      ],
      "name": "build",
      "outputs": [
        {
          "components": [
            {
              "internalType": "bytes",
              "name": "message",
              "type": "bytes"
            },
            {
              "internalType": "bool",
              "name": "isSelectableByUser",
              "type": "bool"
            },
            {
              "internalType": "bytes",
              "name": "extraData",
              "type": "bytes"
            }
          ],
          "internalType": "struct SignatureRequest",
          "name": "",
          "type": "tuple"
        }
      ],
      "stateMutability": "pure",
      "type": "function"
    },
    {
      "inputs": [
        {
          "internalType": "bytes",
          "name": "message",
          "type": "bytes"
        }
      ],
      "name": "build",
      "outputs": [
        {
          "components": [
            {
              "internalType": "bytes",
              "name": "message",
              "type": "bytes"
            },
            {
              "internalType": "bool",
              "name": "isSelectableByUser",
              "type": "bool"
            },
            {
              "internalType": "bytes",
              "name": "extraData",
              "type": "bytes"
            }
          ],
          "internalType": "struct SignatureRequest",
          "name": "",
          "type": "tuple"
        }
      ],
      "stateMutability": "pure",
      "type": "function"
    },
    {
      "inputs": [
        {
          "internalType": "bool",
          "name": "isSelectableByUser",
          "type": "bool"
        },
        {
          "internalType": "bytes",
          "name": "extraData",
          "type": "bytes"
        }
      ],
      "name": "build",
      "outputs": [
        {
          "components": [
            {
              "internalType": "bytes",
              "name": "message",
              "type": "bytes"
            },
            {
              "internalType": "bool",
              "name": "isSelectableByUser",
              "type": "bool"
            },
            {
              "internalType": "bytes",
              "name": "extraData",
              "type": "bytes"
            }
          ],
          "internalType": "struct SignatureRequest",
          "name": "",
          "type": "tuple"
        }
      ],
      "stateMutability": "pure",
      "type": "function"
    },
    {
      "inputs": [],
      "name": "buildEmpty",
      "outputs": [
        {
          "components": [
            {
              "internalType": "bytes",
              "name": "message",
              "type": "bytes"
            },
            {
              "internalType": "bool",
              "name": "isSelectableByUser",
              "type": "bool"
            },
            {
              "internalType": "bytes",
              "name": "extraData",
              "type": "bytes"
            }
          ],
          "internalType": "struct SignatureRequest",
          "name": "",
          "type": "tuple"
        }
      ],
      "stateMutability": "pure",
      "type": "function"
    }
  ],
  "bytecode": {
    "object": "0x608060405234801561001057600080fd5b506107aa806100206000396000f3fe608060405234801561001057600080fd5b50600436106100be5760003560e01c80636835f32c116100765780637476d1ac1161005b5780637476d1ac146102ba578063800e65f21461032e578063ac799cb31461039d57600080fd5b80636835f32c1461024a57806372915d891461029757600080fd5b80635c4b7b60116100a75780635c4b7b601461019d5780635de3b44c146101b557806364009b99146101fa57600080fd5b80631f785c95146100c35780633ed8572e14610120575b600080fd5b61010a6100d13660046104c8565b60408051606080820183528082526000602083015291810191909152506040805160608101825293845291151560208401529082015290565b60405161011791906105a0565b60405180910390f35b61010a61012e36600461060c565b604080516060808201835280825260006020808401829052928401829052835160a08101855260189281019283527f4d4553534147455f53454c45435445445f42595f555345520000000000000000608082015291825293151581830152825191820183529281529082015290565b6101a5600081565b6040519015158152602001610117565b61010a6101c336600461062e565b6040805160608082018352808252600060208301529181019190915250604080516060810182529283526000602084015282015290565b61010a610208366004610692565b60408051606080820183528082526000602080840182905292840182905283519182018452948152921515838201528151908101825292835281019190915290565b61010a6102583660046106e0565b60408051606080820183528082526000602080840182905292840182905283519182018452938152808201849052825191820183529281529082015290565b6102ad6040518060200160405280600081525081565b604051610117919061071d565b61010a6102c8366004610730565b60408051606080820183528082526000602083015291810191909152506040805160a0810182526018606082019081527f4d4553534147455f53454c45435445445f42595f55534552000000000000000060808301528152921515602084015282015290565b604080516060808201835280825260006020808401829052928401829052835160a08101855260189281019283527f4d4553534147455f53454c45435445445f42595f55534552000000000000000060808201529182528183018190528351928301845282529182015261010a565b6102ad6040518060400160405280601881526020017f4d4553534147455f53454c45435445445f42595f55534552000000000000000081525081565b7f4e487b7100000000000000000000000000000000000000000000000000000000600052604160045260246000fd5b600082601f83011261041957600080fd5b813567ffffffffffffffff80821115610434576104346103d9565b604051601f83017fffffffffffffffffffffffffffffffffffffffffffffffffffffffffffffffe0908116603f0116810190828211818310171561047a5761047a6103d9565b8160405283815286602085880101111561049357600080fd5b836020870160208301376000602085830101528094505050505092915050565b803580151581146104c357600080fd5b919050565b6000806000606084860312156104dd57600080fd5b833567ffffffffffffffff808211156104f557600080fd5b61050187838801610408565b945061050f602087016104b3565b9350604086013591508082111561052557600080fd5b5061053286828701610408565b9150509250925092565b6000815180845260005b8181101561056257602081850181015186830182015201610546565b5060006020828601015260207fffffffffffffffffffffffffffffffffffffffffffffffffffffffffffffffe0601f83011685010191505092915050565b6020815260008251606060208401526105bc608084018261053c565b905060208401511515604084015260408401517fffffffffffffffffffffffffffffffffffffffffffffffffffffffffffffffe0848303016060850152610603828261053c565b95945050505050565b60006020828403121561061e57600080fd5b610627826104b3565b9392505050565b6000806040838503121561064157600080fd5b823567ffffffffffffffff8082111561065957600080fd5b61066586838701610408565b9350602085013591508082111561067b57600080fd5b5061068885828601610408565b9150509250929050565b600080604083850312156106a557600080fd5b823567ffffffffffffffff8111156106bc57600080fd5b6106c885828601610408565b9250506106d7602084016104b3565b90509250929050565b6000602082840312156106f257600080fd5b813567ffffffffffffffff81111561070957600080fd5b61071584828501610408565b949350505050565b602081526000610627602083018461053c565b6000806040838503121561074357600080fd5b61074c836104b3565b9150602083013567ffffffffffffffff81111561076857600080fd5b6106888582860161040856fea2646970667358221220c1ea7fb15b41024fab536095c04f816a390bcc6e776d5aca3c47b343499aa11964736f6c63430008150033",
    "linkReferences": {}
  },
  "methodIdentifiers": {
    "DEFAULT_SIGNATURE_REQUEST_EXTRA_DATA()": "72915d89",
    "DEFAULT_SIGNATURE_REQUEST_IS_SELECTABLE_BY_USER()": "5c4b7b60",
    "DEFAULT_SIGNATURE_REQUEST_MESSAGE()": "ac799cb3",
    "build(bool)": "3ed8572e",
    "build(bool,bytes)": "7476d1ac",
    "build(bytes)": "6835f32c",
    "build(bytes,bool)": "64009b99",
    "build(bytes,bool,bytes)": "1f785c95",
    "build(bytes,bytes)": "5de3b44c",
    "buildEmpty()": "800e65f2"
  },
  "id": 7
}