{
  "abi": [
    {
      "inputs": [],
      "name": "InvalidUserIdAndAuthType",
      "type": "error"
    },
    {
      "inputs": [],
      "name": "InvalidUserIdAndIsSelectableByUserAuthType",
      "type": "error"
    },
    {
      "inputs": [],
      "name": "DEFAULT_AUTH_REQUEST_EXTRA_DATA",
      "outputs": [
        {
          "internalType": "bytes",
          "name": "",
          "type": "bytes"
        }
      ],
      "stateMutability": "view",
      "type": "function"
    },
    {
      "inputs": [],
      "name": "DEFAULT_AUTH_REQUEST_IS_ANON",
      "outputs": [
        {
          "internalType": "bool",
          "name": "",
          "type": "bool"
        }
      ],
      "stateMutability": "view",
      "type": "function"
    },
    {
      "inputs": [],
      "name": "DEFAULT_AUTH_REQUEST_IS_OPTIONAL",
      "outputs": [
        {
          "internalType": "bool",
          "name": "",
          "type": "bool"
        }
      ],
      "stateMutability": "view",
      "type": "function"
    },
    {
      "inputs": [],
      "name": "DEFAULT_AUTH_REQUEST_USER_ID",
      "outputs": [
        {
          "internalType": "uint256",
          "name": "",
          "type": "uint256"
        }
      ],
      "stateMutability": "view",
      "type": "function"
    },
    {
      "inputs": [
        {
          "internalType": "enum AuthType",
          "name": "authType",
          "type": "uint8"
        },
        {
          "internalType": "bool",
          "name": "isAnon",
          "type": "bool"
        },
        {
          "internalType": "bytes",
          "name": "extraData",
          "type": "bytes"
        }
      ],
      "name": "build",
      "outputs": [
        {
          "components": [
            {
              "internalType": "enum AuthType",
              "name": "authType",
              "type": "uint8"
            },
            {
              "internalType": "uint256",
              "name": "userId",
              "type": "uint256"
            },
            {
              "internalType": "bool",
              "name": "isAnon",
              "type": "bool"
            },
            {
              "internalType": "bool",
              "name": "isOptional",
              "type": "bool"
            },
            {
              "internalType": "bool",
              "name": "isSelectableByUser",
              "type": "bool"
            },
            {
              "internalType": "bytes",
              "name": "extraData",
              "type": "bytes"
            }
          ],
          "internalType": "struct AuthRequest",
          "name": "",
          "type": "tuple"
        }
      ],
      "stateMutability": "pure",
      "type": "function"
    },
    {
      "inputs": [
        {
          "internalType": "enum AuthType",
          "name": "authType",
          "type": "uint8"
        },
        {
          "internalType": "bool",
          "name": "isAnon",
          "type": "bool"
        }
      ],
      "name": "build",
      "outputs": [
        {
          "components": [
            {
              "internalType": "enum AuthType",
              "name": "authType",
              "type": "uint8"
            },
            {
              "internalType": "uint256",
              "name": "userId",
              "type": "uint256"
            },
            {
              "internalType": "bool",
              "name": "isAnon",
              "type": "bool"
            },
            {
              "internalType": "bool",
              "name": "isOptional",
              "type": "bool"
            },
            {
              "internalType": "bool",
              "name": "isSelectableByUser",
              "type": "bool"
            },
            {
              "internalType": "bytes",
              "name": "extraData",
              "type": "bytes"
            }
          ],
          "internalType": "struct AuthRequest",
          "name": "",
          "type": "tuple"
        }
      ],
      "stateMutability": "pure",
      "type": "function"
    },
    {
      "inputs": [
        {
          "internalType": "enum AuthType",
          "name": "authType",
          "type": "uint8"
        },
        {
          "internalType": "bool",
          "name": "isAnon",
          "type": "bool"
        },
        {
          "internalType": "bool",
          "name": "isOptional",
          "type": "bool"
        },
        {
          "internalType": "bool",
          "name": "isSelectableByUser",
          "type": "bool"
        }
      ],
      "name": "build",
      "outputs": [
        {
          "components": [
            {
              "internalType": "enum AuthType",
              "name": "authType",
              "type": "uint8"
            },
            {
              "internalType": "uint256",
              "name": "userId",
              "type": "uint256"
            },
            {
              "internalType": "bool",
              "name": "isAnon",
              "type": "bool"
            },
            {
              "internalType": "bool",
              "name": "isOptional",
              "type": "bool"
            },
            {
              "internalType": "bool",
              "name": "isSelectableByUser",
              "type": "bool"
            },
            {
              "internalType": "bytes",
              "name": "extraData",
              "type": "bytes"
            }
          ],
          "internalType": "struct AuthRequest",
          "name": "",
          "type": "tuple"
        }
      ],
      "stateMutability": "pure",
      "type": "function"
    },
    {
      "inputs": [
        {
          "internalType": "enum AuthType",
          "name": "authType",
          "type": "uint8"
        },
        {
          "internalType": "bool",
          "name": "isOptional",
          "type": "bool"
        },
        {
          "internalType": "bool",
          "name": "isSelectableByUser",
          "type": "bool"
        },
        {
          "internalType": "uint256",
          "name": "userId",
          "type": "uint256"
        }
      ],
      "name": "build",
      "outputs": [
        {
          "components": [
            {
              "internalType": "enum AuthType",
              "name": "authType",
              "type": "uint8"
            },
            {
              "internalType": "uint256",
              "name": "userId",
              "type": "uint256"
            },
            {
              "internalType": "bool",
              "name": "isAnon",
              "type": "bool"
            },
            {
              "internalType": "bool",
              "name": "isOptional",
              "type": "bool"
            },
            {
              "internalType": "bool",
              "name": "isSelectableByUser",
              "type": "bool"
            },
            {
              "internalType": "bytes",
              "name": "extraData",
              "type": "bytes"
            }
          ],
          "internalType": "struct AuthRequest",
          "name": "",
          "type": "tuple"
        }
      ],
      "stateMutability": "pure",
      "type": "function"
    },
    {
      "inputs": [
        {
          "internalType": "enum AuthType",
          "name": "authType",
          "type": "uint8"
        }
      ],
      "name": "build",
      "outputs": [
        {
          "components": [
            {
              "internalType": "enum AuthType",
              "name": "authType",
              "type": "uint8"
            },
            {
              "internalType": "uint256",
              "name": "userId",
              "type": "uint256"
            },
            {
              "internalType": "bool",
              "name": "isAnon",
              "type": "bool"
            },
            {
              "internalType": "bool",
              "name": "isOptional",
              "type": "bool"
            },
            {
              "internalType": "bool",
              "name": "isSelectableByUser",
              "type": "bool"
            },
            {
              "internalType": "bytes",
              "name": "extraData",
              "type": "bytes"
            }
          ],
          "internalType": "struct AuthRequest",
          "name": "",
          "type": "tuple"
        }
      ],
      "stateMutability": "pure",
      "type": "function"
    },
    {
      "inputs": [
        {
          "internalType": "enum AuthType",
          "name": "authType",
          "type": "uint8"
        },
        {
          "internalType": "uint256",
          "name": "userId",
          "type": "uint256"
        },
        {
          "internalType": "bool",
          "name": "isOptional",
          "type": "bool"
        }
      ],
      "name": "build",
      "outputs": [
        {
          "components": [
            {
              "internalType": "enum AuthType",
              "name": "authType",
              "type": "uint8"
            },
            {
              "internalType": "uint256",
              "name": "userId",
              "type": "uint256"
            },
            {
              "internalType": "bool",
              "name": "isAnon",
              "type": "bool"
            },
            {
              "internalType": "bool",
              "name": "isOptional",
              "type": "bool"
            },
            {
              "internalType": "bool",
              "name": "isSelectableByUser",
              "type": "bool"
            },
            {
              "internalType": "bytes",
              "name": "extraData",
              "type": "bytes"
            }
          ],
          "internalType": "struct AuthRequest",
          "name": "",
          "type": "tuple"
        }
      ],
      "stateMutability": "pure",
      "type": "function"
    },
    {
      "inputs": [
        {
          "internalType": "enum AuthType",
          "name": "authType",
          "type": "uint8"
        },
        {
          "internalType": "uint256",
          "name": "userId",
          "type": "uint256"
        }
      ],
      "name": "build",
      "outputs": [
        {
          "components": [
            {
              "internalType": "enum AuthType",
              "name": "authType",
              "type": "uint8"
            },
            {
              "internalType": "uint256",
              "name": "userId",
              "type": "uint256"
            },
            {
              "internalType": "bool",
              "name": "isAnon",
              "type": "bool"
            },
            {
              "internalType": "bool",
              "name": "isOptional",
              "type": "bool"
            },
            {
              "internalType": "bool",
              "name": "isSelectableByUser",
              "type": "bool"
            },
            {
              "internalType": "bytes",
              "name": "extraData",
              "type": "bytes"
            }
          ],
          "internalType": "struct AuthRequest",
          "name": "",
          "type": "tuple"
        }
      ],
      "stateMutability": "pure",
      "type": "function"
    },
    {
      "inputs": [
        {
          "internalType": "enum AuthType",
          "name": "authType",
          "type": "uint8"
        },
        {
          "internalType": "bytes",
          "name": "extraData",
          "type": "bytes"
        }
      ],
      "name": "build",
      "outputs": [
        {
          "components": [
            {
              "internalType": "enum AuthType",
              "name": "authType",
              "type": "uint8"
            },
            {
              "internalType": "uint256",
              "name": "userId",
              "type": "uint256"
            },
            {
              "internalType": "bool",
              "name": "isAnon",
              "type": "bool"
            },
            {
              "internalType": "bool",
              "name": "isOptional",
              "type": "bool"
            },
            {
              "internalType": "bool",
              "name": "isSelectableByUser",
              "type": "bool"
            },
            {
              "internalType": "bytes",
              "name": "extraData",
              "type": "bytes"
            }
          ],
          "internalType": "struct AuthRequest",
          "name": "",
          "type": "tuple"
        }
      ],
      "stateMutability": "pure",
      "type": "function"
    },
    {
      "inputs": [
        {
          "internalType": "enum AuthType",
          "name": "authType",
          "type": "uint8"
        },
        {
          "internalType": "bool",
          "name": "isAnon",
          "type": "bool"
        },
        {
          "internalType": "uint256",
          "name": "userId",
          "type": "uint256"
        }
      ],
      "name": "build",
      "outputs": [
        {
          "components": [
            {
              "internalType": "enum AuthType",
              "name": "authType",
              "type": "uint8"
            },
            {
              "internalType": "uint256",
              "name": "userId",
              "type": "uint256"
            },
            {
              "internalType": "bool",
              "name": "isAnon",
              "type": "bool"
            },
            {
              "internalType": "bool",
              "name": "isOptional",
              "type": "bool"
            },
            {
              "internalType": "bool",
              "name": "isSelectableByUser",
              "type": "bool"
            },
            {
              "internalType": "bytes",
              "name": "extraData",
              "type": "bytes"
            }
          ],
          "internalType": "struct AuthRequest",
          "name": "",
          "type": "tuple"
        }
      ],
      "stateMutability": "pure",
      "type": "function"
    },
    {
      "inputs": [
        {
          "internalType": "enum AuthType",
          "name": "authType",
          "type": "uint8"
        },
        {
          "internalType": "bool",
          "name": "isAnon",
          "type": "bool"
        },
        {
          "internalType": "uint256",
          "name": "userId",
          "type": "uint256"
        },
        {
          "internalType": "bool",
          "name": "isOptional",
          "type": "bool"
        }
      ],
      "name": "build",
      "outputs": [
        {
          "components": [
            {
              "internalType": "enum AuthType",
              "name": "authType",
              "type": "uint8"
            },
            {
              "internalType": "uint256",
              "name": "userId",
              "type": "uint256"
            },
            {
              "internalType": "bool",
              "name": "isAnon",
              "type": "bool"
            },
            {
              "internalType": "bool",
              "name": "isOptional",
              "type": "bool"
            },
            {
              "internalType": "bool",
              "name": "isSelectableByUser",
              "type": "bool"
            },
            {
              "internalType": "bytes",
              "name": "extraData",
              "type": "bytes"
            }
          ],
          "internalType": "struct AuthRequest",
          "name": "",
          "type": "tuple"
        }
      ],
      "stateMutability": "pure",
      "type": "function"
    },
    {
      "inputs": [
        {
          "internalType": "enum AuthType",
          "name": "authType",
          "type": "uint8"
        },
        {
          "internalType": "bool",
          "name": "isAnon",
          "type": "bool"
        },
        {
          "internalType": "uint256",
          "name": "userId",
          "type": "uint256"
        },
        {
          "internalType": "bool",
          "name": "isOptional",
          "type": "bool"
        },
        {
          "internalType": "bool",
          "name": "isSelectableByUser",
          "type": "bool"
        },
        {
          "internalType": "bytes",
          "name": "extraData",
          "type": "bytes"
        }
      ],
      "name": "build",
      "outputs": [
        {
          "components": [
            {
              "internalType": "enum AuthType",
              "name": "authType",
              "type": "uint8"
            },
            {
              "internalType": "uint256",
              "name": "userId",
              "type": "uint256"
            },
            {
              "internalType": "bool",
              "name": "isAnon",
              "type": "bool"
            },
            {
              "internalType": "bool",
              "name": "isOptional",
              "type": "bool"
            },
            {
              "internalType": "bool",
              "name": "isSelectableByUser",
              "type": "bool"
            },
            {
              "internalType": "bytes",
              "name": "extraData",
              "type": "bytes"
            }
          ],
          "internalType": "struct AuthRequest",
          "name": "",
          "type": "tuple"
        }
      ],
      "stateMutability": "pure",
      "type": "function"
    },
    {
      "inputs": [
        {
          "internalType": "enum AuthType",
          "name": "authType",
          "type": "uint8"
        },
        {
          "internalType": "uint256",
          "name": "userId",
          "type": "uint256"
        },
        {
          "internalType": "bytes",
          "name": "extraData",
          "type": "bytes"
        }
      ],
      "name": "build",
      "outputs": [
        {
          "components": [
            {
              "internalType": "enum AuthType",
              "name": "authType",
              "type": "uint8"
            },
            {
              "internalType": "uint256",
              "name": "userId",
              "type": "uint256"
            },
            {
              "internalType": "bool",
              "name": "isAnon",
              "type": "bool"
            },
            {
              "internalType": "bool",
              "name": "isOptional",
              "type": "bool"
            },
            {
              "internalType": "bool",
              "name": "isSelectableByUser",
              "type": "bool"
            },
            {
              "internalType": "bytes",
              "name": "extraData",
              "type": "bytes"
            }
          ],
          "internalType": "struct AuthRequest",
          "name": "",
          "type": "tuple"
        }
      ],
      "stateMutability": "pure",
      "type": "function"
    },
    {
      "inputs": [
        {
          "internalType": "enum AuthType",
          "name": "authType",
          "type": "uint8"
        },
        {
          "internalType": "bool",
          "name": "isAnon",
          "type": "bool"
        },
        {
          "internalType": "uint256",
          "name": "userId",
          "type": "uint256"
        },
        {
          "internalType": "bytes",
          "name": "extraData",
          "type": "bytes"
        }
      ],
      "name": "build",
      "outputs": [
        {
          "components": [
            {
              "internalType": "enum AuthType",
              "name": "authType",
              "type": "uint8"
            },
            {
              "internalType": "uint256",
              "name": "userId",
              "type": "uint256"
            },
            {
              "internalType": "bool",
              "name": "isAnon",
              "type": "bool"
            },
            {
              "internalType": "bool",
              "name": "isOptional",
              "type": "bool"
            },
            {
              "internalType": "bool",
              "name": "isSelectableByUser",
              "type": "bool"
            },
            {
              "internalType": "bytes",
              "name": "extraData",
              "type": "bytes"
            }
          ],
          "internalType": "struct AuthRequest",
          "name": "",
          "type": "tuple"
        }
      ],
      "stateMutability": "pure",
      "type": "function"
    },
    {
      "inputs": [
        {
          "internalType": "enum AuthType",
          "name": "authType",
          "type": "uint8"
        },
        {
          "internalType": "bool",
          "name": "isOptional",
          "type": "bool"
        },
        {
          "internalType": "bool",
          "name": "isSelectableByUser",
          "type": "bool"
        }
      ],
      "name": "build",
      "outputs": [
        {
          "components": [
            {
              "internalType": "enum AuthType",
              "name": "authType",
              "type": "uint8"
            },
            {
              "internalType": "uint256",
              "name": "userId",
              "type": "uint256"
            },
            {
              "internalType": "bool",
              "name": "isAnon",
              "type": "bool"
            },
            {
              "internalType": "bool",
              "name": "isOptional",
              "type": "bool"
            },
            {
              "internalType": "bool",
              "name": "isSelectableByUser",
              "type": "bool"
            },
            {
              "internalType": "bytes",
              "name": "extraData",
              "type": "bytes"
            }
          ],
          "internalType": "struct AuthRequest",
          "name": "",
          "type": "tuple"
        }
      ],
      "stateMutability": "pure",
      "type": "function"
    }
  ],
  "bytecode": {
    "object": "0x608060405234801561001057600080fd5b50610f0e806100206000396000f3fe608060405234801561001057600080fd5b50600436106101365760003560e01c8063498a992e116100b2578063916d93c711610081578063af4f639611610066578063af4f63961461026f578063c355a32c14610282578063c3bcacd01461029557600080fd5b8063916d93c7146102495780639aa01be11461025c57600080fd5b8063498a992e1461013b57806351559190146102105780636746dd2c146102235780638b9dba711461023657600080fd5b80633049e4f1116101095780633ca1531a116100ee5780633ca1531a146101c4578063448324ea146101d757806345c13083146101ed57600080fd5b80633049e4f11461019e5780633a0ba6ff146101b157600080fd5b80631967e5101461013b5780631a88fb281461015857806320c9019914610178578063291884ae1461018b575b600080fd5b610143600081565b60405190151581526020015b60405180910390f35b61016b6101663660046109b4565b6102a8565b60405161014f9190610aa5565b61016b610186366004610b3b565b6102f0565b61016b610199366004610b6e565b61034a565b61016b6101ac366004610bc2565b6103a5565b61016b6101bf366004610c0d565b6103f7565b61016b6101d2366004610c28565b610449565b6101df600081565b60405190815260200161014f565b6102036040518060200160405280600081525081565b60405161014f9190610c64565b61016b61021e366004610c77565b61049a565b61016b610231366004610ca1565b6104ec565b61016b610244366004610cef565b61052b565b61016b610257366004610d2b565b61057c565b61016b61026a366004610d6d565b6105cc565b61016b61027d366004610df5565b610619565b61016b610290366004610e36565b610658565b61016b6102a3366004610e9e565b61069a565b6040805160c08101825260008082526020820181905291810182905260608082018390526080820183905260a0820152906102e8908590859080866106ec565b949350505050565b6040805160c0810182526000808252602082018190529181018290526060808201839052608082019290925260a08101919091526103418383600080604051806020016040528060008152506106ec565b90505b92915050565b6040805160c0810182526000808252602082018190529181018290526060808201839052608082019290925260a081019190915261039c85856000868660405180602001604052806000815250610741565b95945050505050565b6040805160c0810182526000808252602082018190529181018290526060808201839052608082019290925260a081019190915261039c85600084878760405180602001604052806000815250610741565b6040805160c0810182526000808252602082018190529181018290526060808201839052608082019290925260a0810191909152610344826000806000604051806020016040528060008152506106ec565b6040805160c0810182526000808252602082018190529181018290526060808201839052608082019290925260a08101919091526102e88460008585604051806020016040528060008152506106ec565b6040805160c0810182526000808252602082018190529181018290526060808201839052608082019290925260a0810191909152610341836000846000604051806020016040528060008152506106ec565b6040805160c08101825260008082526020820181905291810182905260608082018390526080820183905260a0820152906103419084908080866106ec565b6040805160c0810182526000808252602082018190529181018290526060808201839052608082019290925260a08101919091526102e88484846000604051806020016040528060008152506106ec565b6040805160c0810182526000808252602082018190529181018290526060808201839052608082019290925260a081019190915261039c85858585604051806020016040528060008152506106ec565b6040805160c0810182526000808252602082018190529181018290526060808201839052608082019290925260a081019190915261060e878787878787610741565b979650505050505050565b6040805160c08101825260008082526020820181905291810182905260608082018390526080820183905260a0820152906102e89085908581866106ec565b6040805160c0810182526000808252602082018190529181018290526060808201839052608082019290925260a081019190915261039c8585856000866106ec565b6040805160c0810182526000808252602082018190529181018290526060808201839052608082019290925260a08101919091526102e884600080868660405180602001604052806000815250610741565b6040805160c0810182526000808252602082018190529181018290526060808201839052608082019290925260a0810191909152610737868686866107318b8a61087c565b87610741565b9695505050505050565b6040805160c08101825260008082526020820181905291810182905260608082018390526080820183905260a08201529087600581111561078457610784610a12565b14158015610790575084155b801561079a575082155b156107d1576040517f032e5d9a00000000000000000000000000000000000000000000000000000000815260040160405180910390fd5b60008760058111156107e5576107e5610a12565b1480156107f157508415155b80156107fb575082155b15610832576040517f7fb1693d00000000000000000000000000000000000000000000000000000000815260040160405180910390fd5b6040518060c0016040528088600581111561084f5761084f610a12565b8152602081019690965295151560408601525091151560608401521515608083015260a090910152919050565b60008083600581111561089157610891610a12565b0361089e57506000610344565b816000036108ae57506001610344565b506000610344565b8035600681106108c557600080fd5b919050565b803580151581146108c557600080fd5b7f4e487b7100000000000000000000000000000000000000000000000000000000600052604160045260246000fd5b600082601f83011261091a57600080fd5b813567ffffffffffffffff80821115610935576109356108da565b604051601f83017fffffffffffffffffffffffffffffffffffffffffffffffffffffffffffffffe0908116603f0116810190828211818310171561097b5761097b6108da565b8160405283815286602085880101111561099457600080fd5b836020870160208301376000602085830101528094505050505092915050565b6000806000606084860312156109c957600080fd5b6109d2846108b6565b92506109e0602085016108ca565b9150604084013567ffffffffffffffff8111156109fc57600080fd5b610a0886828701610909565b9150509250925092565b7f4e487b7100000000000000000000000000000000000000000000000000000000600052602160045260246000fd5b6000815180845260005b81811015610a6757602081850181015186830182015201610a4b565b5060006020828601015260207fffffffffffffffffffffffffffffffffffffffffffffffffffffffffffffffe0601f83011685010191505092915050565b602081526000825160068110610ae4577f4e487b7100000000000000000000000000000000000000000000000000000000600052602160045260246000fd5b80602084015250602083015160408301526040830151151560608301526060830151610b14608084018215159052565b50608083015180151560a08401525060a083015160c0808401526102e860e0840182610a41565b60008060408385031215610b4e57600080fd5b610b57836108b6565b9150610b65602084016108ca565b90509250929050565b60008060008060808587031215610b8457600080fd5b610b8d856108b6565b9350610b9b602086016108ca565b9250610ba9604086016108ca565b9150610bb7606086016108ca565b905092959194509250565b60008060008060808587031215610bd857600080fd5b610be1856108b6565b9350610bef602086016108ca565b9250610bfd604086016108ca565b9396929550929360600135925050565b600060208284031215610c1f57600080fd5b610341826108b6565b600080600060608486031215610c3d57600080fd5b610c46846108b6565b925060208401359150610c5b604085016108ca565b90509250925092565b6020815260006103416020830184610a41565b60008060408385031215610c8a57600080fd5b610c93836108b6565b946020939093013593505050565b60008060408385031215610cb457600080fd5b610cbd836108b6565b9150602083013567ffffffffffffffff811115610cd957600080fd5b610ce585828601610909565b9150509250929050565b600080600060608486031215610d0457600080fd5b610d0d846108b6565b9250610d1b602085016108ca565b9150604084013590509250925092565b60008060008060808587031215610d4157600080fd5b610d4a856108b6565b9350610d58602086016108ca565b925060408501359150610bb7606086016108ca565b60008060008060008060c08789031215610d8657600080fd5b610d8f876108b6565b9550610d9d602088016108ca565b945060408701359350610db2606088016108ca565b9250610dc0608088016108ca565b915060a087013567ffffffffffffffff811115610ddc57600080fd5b610de889828a01610909565b9150509295509295509295565b600080600060608486031215610e0a57600080fd5b610e13846108b6565b925060208401359150604084013567ffffffffffffffff8111156109fc57600080fd5b60008060008060808587031215610e4c57600080fd5b610e55856108b6565b9350610e63602086016108ca565b925060408501359150606085013567ffffffffffffffff811115610e8657600080fd5b610e9287828801610909565b91505092959194509250565b600080600060608486031215610eb357600080fd5b610ebc846108b6565b9250610eca602085016108ca565b9150610c5b604085016108ca56fea2646970667358221220f5e5a534787491a45f9332880a6e6cbbdc4b6d0ec4a16b19fc2e9554c81deed664736f6c63430008150033",
    "linkReferences": {}
  },
  "methodIdentifiers": {
    "DEFAULT_AUTH_REQUEST_EXTRA_DATA()": "45c13083",
    "DEFAULT_AUTH_REQUEST_IS_ANON()": "1967e510",
    "DEFAULT_AUTH_REQUEST_IS_OPTIONAL()": "498a992e",
    "DEFAULT_AUTH_REQUEST_USER_ID()": "448324ea",
    "build(uint8)": "3a0ba6ff",
    "build(uint8,bool)": "20c90199",
    "build(uint8,bool,bool)": "c3bcacd0",
    "build(uint8,bool,bool,bool)": "291884ae",
    "build(uint8,bool,bool,uint256)": "3049e4f1",
    "build(uint8,bool,bytes)": "1a88fb28",
    "build(uint8,bool,uint256)": "8b9dba71",
    "build(uint8,bool,uint256,bool)": "916d93c7",
    "build(uint8,bool,uint256,bool,bool,bytes)": "9aa01be1",
    "build(uint8,bool,uint256,bytes)": "c355a32c",
    "build(uint8,bytes)": "6746dd2c",
    "build(uint8,uint256)": "51559190",
    "build(uint8,uint256,bool)": "3ca1531a",
    "build(uint8,uint256,bytes)": "af4f6396"
  },
  "id": 4
}