{
  "abi": [
    {
      "inputs": [
        {
          "internalType": "bytes16",
          "name": "_appId",
          "type": "bytes16"
        },
        {
          "internalType": "bool",
          "name": "_isImpersonationMode",
          "type": "bool"
        }
      ],
      "stateMutability": "nonpayable",
      "type": "constructor"
    },
    {
      "anonymous": false,
      "inputs": [
        {
          "indexed": false,
          "internalType": "uint256",
          "name": "balance",
          "type": "uint256"
        }
      ],
      "name": "Balance",
      "type": "event"
    },
    {
      "anonymous": false,
      "inputs": [
        {
          "indexed": true,
          "internalType": "address",
          "name": "depositor",
          "type": "address"
        },
        {
          "indexed": false,
          "internalType": "uint256",
          "name": "amount",
          "type": "uint256"
        }
      ],
      "name": "Deposit",
      "type": "event"
    },
    {
      "anonymous": false,
      "inputs": [
        {
          "components": [
            {
              "internalType": "bytes16",
              "name": "appId",
              "type": "bytes16"
            },
            {
              "internalType": "bytes16",
              "name": "namespace",
              "type": "bytes16"
            },
            {
              "internalType": "bytes32",
              "name": "version",
              "type": "bytes32"
            },
            {
              "components": [
                {
                  "internalType": "enum AuthType",
                  "name": "authType",
                  "type": "uint8"
                },
                {
                  "internalType": "bool",
                  "name": "isAnon",
                  "type": "bool"
                },
                {
                  "internalType": "uint256",
                  "name": "userId",
                  "type": "uint256"
                },
                {
                  "internalType": "bytes",
                  "name": "extraData",
                  "type": "bytes"
                },
                {
                  "internalType": "bytes",
                  "name": "proofData",
                  "type": "bytes"
                }
              ],
              "internalType": "struct VerifiedAuth[]",
              "name": "auths",
              "type": "tuple[]"
            },
            {
              "components": [
                {
                  "internalType": "enum ClaimType",
                  "name": "claimType",
                  "type": "uint8"
                },
                {
                  "internalType": "bytes16",
                  "name": "groupId",
                  "type": "bytes16"
                },
                {
                  "internalType": "bytes16",
                  "name": "groupTimestamp",
                  "type": "bytes16"
                },
                {
                  "internalType": "uint256",
                  "name": "value",
                  "type": "uint256"
                },
                {
                  "internalType": "bytes",
                  "name": "extraData",
                  "type": "bytes"
                },
                {
                  "internalType": "uint256",
                  "name": "proofId",
                  "type": "uint256"
                },
                {
                  "internalType": "bytes",
                  "name": "proofData",
                  "type": "bytes"
                }
              ],
              "internalType": "struct VerifiedClaim[]",
              "name": "claims",
              "type": "tuple[]"
            },
            {
              "internalType": "bytes",
              "name": "signedMessage",
              "type": "bytes"
            }
          ],
          "indexed": false,
          "internalType": "struct SismoConnectVerifiedResult",
          "name": "result",
          "type": "tuple"
        }
      ],
      "name": "ResponseVerified",
      "type": "event"
    },
    {
      "anonymous": false,
      "inputs": [
        {
          "indexed": true,
          "internalType": "address",
          "name": "from",
          "type": "address"
        },
        {
          "indexed": true,
          "internalType": "address",
          "name": "to",
          "type": "address"
        },
        {
          "indexed": false,
          "internalType": "uint256",
          "name": "amount",
          "type": "uint256"
        }
      ],
      "name": "Transfer",
      "type": "event"
    },
    {
      "anonymous": false,
      "inputs": [
        {
          "indexed": true,
          "internalType": "address",
          "name": "withdrawer",
          "type": "address"
        },
        {
          "indexed": false,
          "internalType": "uint256",
          "name": "amount",
          "type": "uint256"
        }
      ],
      "name": "Withdrawal",
      "type": "event"
    },
    {
      "inputs": [],
      "name": "ADDRESSES_PROVIDER_V2",
      "outputs": [
        {
          "internalType": "contract IAddressesProvider",
          "name": "",
          "type": "address"
        }
      ],
      "stateMutability": "view",
      "type": "function"
    },
    {
      "inputs": [],
      "name": "APP_ID",
      "outputs": [
        {
          "internalType": "bytes16",
          "name": "",
          "type": "bytes16"
        }
      ],
      "stateMutability": "view",
      "type": "function"
    },
    {
      "inputs": [],
      "name": "IS_IMPERSONATION_MODE",
      "outputs": [
        {
          "internalType": "bool",
          "name": "",
          "type": "bool"
        }
      ],
      "stateMutability": "view",
      "type": "function"
    },
    {
      "inputs": [],
      "name": "SISMO_CONNECT_LIB_VERSION",
      "outputs": [
        {
          "internalType": "uint256",
          "name": "",
          "type": "uint256"
        }
      ],
      "stateMutability": "view",
      "type": "function"
    },
    {
      "inputs": [],
      "name": "config",
      "outputs": [
        {
          "components": [
            {
              "internalType": "bytes16",
              "name": "appId",
              "type": "bytes16"
            },
            {
              "components": [
                {
                  "internalType": "bool",
                  "name": "isImpersonationMode",
                  "type": "bool"
                }
              ],
              "internalType": "struct VaultConfig",
              "name": "vault",
              "type": "tuple"
            }
          ],
          "internalType": "struct SismoConnectConfig",
          "name": "",
          "type": "tuple"
        }
      ],
      "stateMutability": "view",
      "type": "function"
    },
    {
      "inputs": [],
      "name": "deposit",
      "outputs": [],
      "stateMutability": "payable",
      "type": "function"
    },
    {
      "inputs": [
        {
          "internalType": "bytes",
          "name": "_response",
          "type": "bytes"
        }
      ],
      "name": "getBalance",
      "outputs": [],
      "stateMutability": "nonpayable",
      "type": "function"
    },
    {
      "inputs": [
        {
          "internalType": "uint256",
          "name": "_amount",
          "type": "uint256"
        },
        {
          "internalType": "address",
          "name": "_to",
          "type": "address"
        },
        {
          "internalType": "bytes",
          "name": "_response",
          "type": "bytes"
        }
      ],
      "name": "privateTransfer",
      "outputs": [],
      "stateMutability": "nonpayable",
      "type": "function"
    },
    {
      "inputs": [
        {
          "internalType": "uint256",
          "name": "_amount",
          "type": "uint256"
        },
        {
          "internalType": "bytes",
          "name": "_response",
          "type": "bytes"
        }
      ],
      "name": "withdraw",
      "outputs": [],
      "stateMutability": "nonpayable",
      "type": "function"
    }
  ],
  "bytecode": {
    "object": "0x6101606040523480156200001257600080fd5b50604051620029843803806200298483398101604081905262000035916200046e565b6200004182826200040c565b80516001600160801b0319166101205260208082015151151561014052604080518082018252601981527f7369736d6f436f6e6e65637456657269666965722d76312e3200000000000000928101929092525163349f642f60e11b8152733cd5334eb64ebbd4003b72022cc25465f1bfcee69163693ec85e91620000c99190600401620004bd565b602060405180830381865afa158015620000e7573d6000803e3d6000fd5b505050506040513d601f19601f820116820180604052508101906200010d91906200050d565b6001600160a01b0316608052604080518082018252601781527f61757468526571756573744275696c6465722d76312e310000000000000000006020820152905163349f642f60e11b8152733cd5334eb64ebbd4003b72022cc25465f1bfcee69163693ec85e91620001839190600401620004bd565b602060405180830381865afa158015620001a1573d6000803e3d6000fd5b505050506040513d601f19601f82011682018060405250810190620001c791906200050d565b6001600160a01b031660a052604080518082018252601881527f636c61696d526571756573744275696c6465722d76312e3100000000000000006020820152905163349f642f60e11b8152733cd5334eb64ebbd4003b72022cc25465f1bfcee69163693ec85e916200023d9190600401620004bd565b602060405180830381865afa1580156200025b573d6000803e3d6000fd5b505050506040513d601f19601f820116820180604052508101906200028191906200050d565b6001600160a01b031660c052604080518082018252601581527f7369676e61747572654275696c6465722d76312e3100000000000000000000006020820152905163349f642f60e11b8152733cd5334eb64ebbd4003b72022cc25465f1bfcee69163693ec85e91620002f79190600401620004bd565b602060405180830381865afa15801562000315573d6000803e3d6000fd5b505050506040513d601f19601f820116820180604052508101906200033b91906200050d565b6001600160a01b031660e052604080518082018252601381527f726571756573744275696c6465722d76312e31000000000000000000000000006020820152905163349f642f60e11b8152733cd5334eb64ebbd4003b72022cc25465f1bfcee69163693ec85e91620003b19190600401620004bd565b602060405180830381865afa158015620003cf573d6000803e3d6000fd5b505050506040513d601f19601f82011682018060405250810190620003f591906200050d565b6001600160a01b031661010052506200053f915050565b62000433604080518082018252600080825282516020818101909452908152909182015290565b506040805180820182526001600160801b03199390931683528051602080820183526000909152815180820190925291151581529082015290565b600080604083850312156200048257600080fd5b82516001600160801b0319811681146200049b57600080fd5b60208401519092508015158114620004b257600080fd5b809150509250929050565b600060208083528351808285015260005b81811015620004ec57858101830151858201604001528201620004ce565b506000604082860101526040601f19601f8301168501019250505092915050565b6000602082840312156200052057600080fd5b81516001600160a01b03811681146200053857600080fd5b9392505050565b60805160a05160c05160e0516101005161012051610140516123df620005a560003960008181610163015261052a0152600081816101a7015261050901526000610ba101526000610c8201526000505060006109c401526000610ac901526123df6000f3fe6080604052600436106100965760003560e01c8063a183dc2711610069578063c9512d991161004e578063c9512d99146101fa578063d0e30db01461021d578063d0fc35011461022557600080fd5b8063a183dc2714610151578063c187bbc11461019557600080fd5b8063030ba25d1461009b578063249c06d5146100bd57806346916301146100dd57806379502c551461012f575b600080fd5b3480156100a757600080fd5b506100bb6100b6366004610f3b565b610245565b005b3480156100c957600080fd5b506100bb6100d8366004610f82565b61037a565b3480156100e957600080fd5b50610105733cd5334eb64ebbd4003b72022cc25465f1bfcee681565b60405173ffffffffffffffffffffffffffffffffffffffff90911681526020015b60405180910390f35b34801561013b57600080fd5b506101446104de565b6040516101269190610ff4565b34801561015d57600080fd5b506101857f000000000000000000000000000000000000000000000000000000000000000081565b6040519015158152602001610126565b3480156101a157600080fd5b506101c97f000000000000000000000000000000000000000000000000000000000000000081565b6040517fffffffffffffffffffffffffffffffff000000000000000000000000000000009091168152602001610126565b34801561020657600080fd5b5061020f600281565b604051908152602001610126565b6100bb610553565b34801561023157600080fd5b506100bb610240366004611030565b610618565b600082116102b4576040517f08c379a000000000000000000000000000000000000000000000000000000000815260206004820152601f60248201527f416d6f756e742073686f756c642062652067726561746572207468616e20300060448201526064015b60405180910390fd5b60006102bf82610709565b905060006102ce8260036107f0565b905083600080836000815181106102e7576102e7611065565b60200260200101518152602001908152602001600020600082825461030c91906110c3565b9091555050604051339085156108fc029086906000818181858888f1935050505015801561033e573d6000803e3d6000fd5b5060405184815233907f7fcf532c15f0a6db0bd6d0e038bea71d30d808c7d98cb3bf7268a95bf5081b659060200160405180910390a250505050565b336000908152602081905260409020548311156103f3576040517f08c379a000000000000000000000000000000000000000000000000000000000815260206004820152601460248201527f496e73756666696369656e742062616c616e636500000000000000000000000060448201526064016102ab565b60006103fe82610709565b9050600061040d8260036107f0565b9050846000808360008151811061042657610426611065565b60200260200101518152602001908152602001600020600082825461044b91906110c3565b909155505073ffffffffffffffffffffffffffffffffffffffff8416600090815260208190526040812080548792906104859084906110d6565b909155505060405185815273ffffffffffffffffffffffffffffffffffffffff85169033907fddf252ad1be2c89b69c2b068fc378daa952ba7f163c4a11628f55a4df523b3ef9060200160405180910390a35050505050565b610504604080518082018252600080825282516020818101909452908152909182015290565b61054e7f00000000000000000000000000000000000000000000000000000000000000007f00000000000000000000000000000000000000000000000000000000000000006108f5565b905090565b600034116105bd576040517f08c379a000000000000000000000000000000000000000000000000000000000815260206004820152601f60248201527f416d6f756e742073686f756c642062652067726561746572207468616e20300060448201526064016102ab565b33600090815260208190526040812080543492906105dc9084906110d6565b909155505060405134815233907fe1fffcc4923d04b559f4d29a8bfc6cda04eb5b0d3c460751c2402c5c5cc9109c9060200160405180910390a2565b600061062382610709565b905060006106328260036107f0565b9050600081511161069f576040517f08c379a000000000000000000000000000000000000000000000000000000000815260206004820152601460248201527f4e6f2045564d206163636f756e7420666f756e6400000000000000000000000060448201526064016102ab565b7fe8d947d7ebdd7b8b8fa2ad2022c7591418ac32d8c29c5f8a8fc9de52ffa54092600080836000815181106106d6576106d6611065565b60200260200101518152602001908152602001600020546040516106fc91815260200190565b60405180910390a1505050565b6040805160c08101825260008082526020820181905281830181905260608083018190526080830181905260a0830152825160018082528185019094529192909190816020015b6040805160c081018252600080825260208083018290529282018190526060808301829052608083019190915260a082015282527fffffffffffffffffffffffffffffffffffffffffffffffffffffffffffffffff9092019101816107505790505090506107be600361096c565b816000815181106107d1576107d1611065565b602002602001018190525060006107e88483610a71565b949350505050565b6060600083606001515167ffffffffffffffff81111561081257610812610d8f565b60405190808252806020026020018201604052801561083b578160200160208202803683370190505b50905060005b8460600151518110156108eb57836005811115610860576108606110e9565b8560600151828151811061087657610876611065565b6020026020010151600001516005811115610893576108936110e9565b036108d957846060015181815181106108ae576108ae611065565b6020026020010151604001518282815181106108cc576108cc611065565b6020026020010181815250505b806108e381611118565b915050610841565b5090505b92915050565b61091b604080518082018252600080825282516020818101909452908152909182015290565b6040518060400160405280846fffffffffffffffffffffffffffffffff1916815260200161096384604080516020808201835260009091528151908101909152901515815290565b90529392505050565b6040805160c0810182526000808252602082018190528183018190526060808301829052608083019190915260a082015290517f3a0ba6ff0000000000000000000000000000000000000000000000000000000081527f000000000000000000000000000000000000000000000000000000000000000073ffffffffffffffffffffffffffffffffffffffff1690633a0ba6ff90610a0e908590600401611164565b600060405180830381865afa158015610a2b573d6000803e3d6000fd5b505050506040513d6000823e601f3d9081017fffffffffffffffffffffffffffffffffffffffffffffffffffffffffffffffe01682016040526108ef9190810190611295565b6040805160c0810182526000808252602082018190529181019190915260608082018190526080820181905260a0820152600083806020019051810190610ab8919061157a565b90506000610ac584610b97565b90507f000000000000000000000000000000000000000000000000000000000000000073ffffffffffffffffffffffffffffffffffffffff166312b037ff8383610b0d6104de565b6040518463ffffffff1660e01b8152600401610b2b93929190611a95565b600060405180830381865afa158015610b48573d6000803e3d6000fd5b505050506040513d6000823e601f3d9081017fffffffffffffffffffffffffffffffffffffffffffffffffffffffffffffffe0168201604052610b8e9190810190611f61565b95945050505050565b610b9f610d36565b7f000000000000000000000000000000000000000000000000000000000000000073ffffffffffffffffffffffffffffffffffffffff16632ceb1e8d83610be4610c64565b6040518363ffffffff1660e01b8152600401610c01929190612042565b600060405180830381865afa158015610c1e573d6000803e3d6000fd5b505050506040513d6000823e601f3d9081017fffffffffffffffffffffffffffffffffffffffffffffffffffffffffffffffe01682016040526108ef919081019061223d565b604080516060808201835280825260006020830152918101919091527f000000000000000000000000000000000000000000000000000000000000000073ffffffffffffffffffffffffffffffffffffffff1663800e65f26040518163ffffffff1660e01b8152600401600060405180830381865afa158015610ceb573d6000803e3d6000fd5b505050506040513d6000823e601f3d9081017fffffffffffffffffffffffffffffffffffffffffffffffffffffffffffffffe016820160405261054e9190810190612374565b905290565b604051806080016040528060006fffffffffffffffffffffffffffffffff191681526020016060815260200160608152602001610d31604051806060016040528060608152602001600015158152602001606081525090565b7f4e487b7100000000000000000000000000000000000000000000000000000000600052604160045260246000fd5b60405160c0810167ffffffffffffffff81118282101715610de157610de1610d8f565b60405290565b60405160a0810167ffffffffffffffff81118282101715610de157610de1610d8f565b60405160e0810167ffffffffffffffff81118282101715610de157610de1610d8f565b6040516080810167ffffffffffffffff81118282101715610de157610de1610d8f565b604051601f82017fffffffffffffffffffffffffffffffffffffffffffffffffffffffffffffffe016810167ffffffffffffffff81118282101715610e9757610e97610d8f565b604052919050565b600067ffffffffffffffff821115610eb957610eb9610d8f565b50601f017fffffffffffffffffffffffffffffffffffffffffffffffffffffffffffffffe01660200190565b600082601f830112610ef657600080fd5b8135610f09610f0482610e9f565b610e50565b818152846020838601011115610f1e57600080fd5b816020850160208301376000918101602001919091529392505050565b60008060408385031215610f4e57600080fd5b82359150602083013567ffffffffffffffff811115610f6c57600080fd5b610f7885828601610ee5565b9150509250929050565b600080600060608486031215610f9757600080fd5b83359250602084013573ffffffffffffffffffffffffffffffffffffffff81168114610fc257600080fd5b9150604084013567ffffffffffffffff811115610fde57600080fd5b610fea86828701610ee5565b9150509250925092565b81517fffffffffffffffffffffffffffffffff0000000000000000000000000000000016815260208083015151151590820152604081016108ef565b60006020828403121561104257600080fd5b813567ffffffffffffffff81111561105957600080fd5b6107e884828501610ee5565b7f4e487b7100000000000000000000000000000000000000000000000000000000600052603260045260246000fd5b7f4e487b7100000000000000000000000000000000000000000000000000000000600052601160045260246000fd5b818103818111156108ef576108ef611094565b808201808211156108ef576108ef611094565b7f4e487b7100000000000000000000000000000000000000000000000000000000600052602160045260246000fd5b60007fffffffffffffffffffffffffffffffffffffffffffffffffffffffffffffffff820361114957611149611094565b5060010190565b60068110611160576111606110e9565b9052565b602081016108ef8284611150565b80516006811061118157600080fd5b919050565b8051801515811461118157600080fd5b60005b838110156111b1578181015183820152602001611199565b50506000910152565b600082601f8301126111cb57600080fd5b81516111d9610f0482610e9f565b8181528460208386010111156111ee57600080fd5b6107e8826020830160208701611196565b600060c0828403121561121157600080fd5b611219610dbe565b905061122482611172565b81526020820151602082015261123c60408301611186565b604082015261124d60608301611186565b606082015261125e60808301611186565b608082015260a082015167ffffffffffffffff81111561127d57600080fd5b611289848285016111ba565b60a08301525092915050565b6000602082840312156112a757600080fd5b815167ffffffffffffffff8111156112be57600080fd5b6107e8848285016111ff565b80517fffffffffffffffffffffffffffffffff000000000000000000000000000000008116811461118157600080fd5b600067ffffffffffffffff82111561131457611314610d8f565b5060051b60200190565b600082601f83011261132f57600080fd5b8151602061133f610f04836112fa565b82815260059290921b8401810191818101908684111561135e57600080fd5b8286015b8481101561143657805167ffffffffffffffff808211156113835760008081fd5b818901915060a0807fffffffffffffffffffffffffffffffffffffffffffffffffffffffffffffffe0848d030112156113bc5760008081fd5b6113c4610de7565b6113cf888501611172565b815260406113de818601611186565b8983015260606113ef818701611186565b8284015260809150818601518184015250828501519250838311156114145760008081fd5b6114228d8a858801016111ba565b908201528652505050918301918301611362565b509695505050505050565b80516005811061118157600080fd5b600082601f83011261146157600080fd5b81516020611471610f04836112fa565b82815260059290921b8401810191818101908684111561149057600080fd5b8286015b8481101561143657805167ffffffffffffffff808211156114b55760008081fd5b818901915060c0807fffffffffffffffffffffffffffffffffffffffffffffffffffffffffffffffe0848d030112156114ee5760008081fd5b6114f6610dbe565b611501888501611441565b815260406115108186016112ca565b8983015260606115218187016112ca565b8284015260809150611534828701611186565b9083015260a0858101518284015292850151928484111561155757600091508182fd5b6115658e8b868901016111ba565b90830152508652505050918301918301611494565b6000602080838503121561158d57600080fd5b825167ffffffffffffffff808211156115a557600080fd5b9084019060a082870312156115b957600080fd5b6115c1610de7565b6115ca836112ca565b81526115d78484016112ca565b84820152604083015160408201526060830151828111156115f757600080fd5b611603888286016111ba565b6060830152506080808401518381111561161c57600080fd5b80850194505087601f85011261163157600080fd5b835161163f610f04826112fa565b81815260059190911b8501860190868101908a83111561165e57600080fd5b8787015b838110156117645780518781111561167a5760008081fd5b880160a0818e037fffffffffffffffffffffffffffffffffffffffffffffffffffffffffffffffe00112156116af5760008081fd5b6116b7610de7565b8a820151898111156116c95760008081fd5b6116d78f8d8386010161131e565b8252506040820151898111156116ed5760008081fd5b6116fb8f8d83860101611450565b8c8301525060608201516040820152868201518981111561171c5760008081fd5b61172a8f8d838601016111ba565b60608301525060a0820151898111156117435760008081fd5b6117518f8d838601016111ba565b8289015250845250918801918801611662565b50928401929092525090979650505050505050565b60008151808452611791816020860160208601611196565b601f017fffffffffffffffffffffffffffffffffffffffffffffffffffffffffffffffe0169290920160200192915050565b60058110611160576111606110e9565b600081518084526020808501808196508360051b8101915082860160005b85811015611888578284038952815160c061180d8683516117c3565b818701517fffffffffffffffffffffffffffffffff0000000000000000000000000000000090811687890152604080840151909116908701526060808301511515908701526080808301519087015260a09182015191860181905261187481870183611779565b9a87019a95505050908401906001016117f1565b5091979650505050505050565b600081518084526020808501808196508360051b8101915082860160005b85811015611888578284038952815160c06118cf868351611150565b818701518688015260408083015115159087015260608083015115159087015260808083015115159087015260a09182015191860181905261191381870183611779565b9a87019a95505050908401906001016118b3565b600081516060845261193c6060850182611779565b905060208301511515602085015260408301518482036040860152610b8e8282611779565b600060807fffffffffffffffffffffffffffffffff0000000000000000000000000000000080845116855260208085015183828801526119a384880182611895565b9050604080870151888303828a01528281518085528585019150858160051b860101868401935060005b82811015611a6b577fffffffffffffffffffffffffffffffffffffffffffffffffffffffffffffffe0878303018452845160e0611a0b8483516117c3565b818a01518b16848b0152878201518b1688850152606080830151908501528b82015115158c85015260a08083015115159085015260c091820151918401819052611a5781850183611779565b968a0196958a0195935050506001016119cd565b5060608b015198508b810360608d0152611a85818a611927565b9c9b505050505050505050505050565b600060808083527fffffffffffffffffffffffffffffffff00000000000000000000000000000000808751168285015260208088015182811660a087015250604088015191508160c08601526060880151915060a060e0860152611afd610120860183611779565b888401518682037fffffffffffffffffffffffffffffffffffffffffffffffffffffffffffffff8001610100880152805180835291935082019082840190600581901b8501840160005b82811015611c90577fffffffffffffffffffffffffffffffffffffffffffffffffffffffffffffffe08783030184528451805160a0808552815190850181905260c0600582901b86018101928a01919086019060005b81811015611c25577fffffffffffffffffffffffffffffffffffffffffffffffffffffffffffffff408886030183528351611bd9868251611150565b8c81015115158d870152604081015115156040870152606081015160608701528e810151905060a08f870152611c1260a0870182611779565b955050928b0192918b0191600101611b9d565b505050508782015184820389860152611c3e82826117d3565b9150506040820151604085015260608201518482036060860152611c628282611779565b9150508982015191508381038a850152611c7c8183611779565b968801969588019593505050600101611b47565b50888103858a0152611ca2818c611961565b8a517fffffffffffffffffffffffffffffffff000000000000000000000000000000001660408b015260208b015151151560608b015297506107e89650505050505050565b600082601f830112611cf857600080fd5b81516020611d08610f04836112fa565b82815260059290921b84018101918181019086841115611d2757600080fd5b8286015b8481101561143657805167ffffffffffffffff80821115611d4c5760008081fd5b818901915060a0807fffffffffffffffffffffffffffffffffffffffffffffffffffffffffffffffe0848d03011215611d855760008081fd5b611d8d610de7565b611d98888501611172565b81526040611da7818601611186565b8983015260608086015182840152608091508186015185811115611dcb5760008081fd5b611dd98f8c838a01016111ba565b82850152505082850151925083831115611df35760008081fd5b611e018d8a858801016111ba565b908201528652505050918301918301611d2b565b600082601f830112611e2657600080fd5b81516020611e36610f04836112fa565b82815260059290921b84018101918181019086841115611e5557600080fd5b8286015b8481101561143657805167ffffffffffffffff80821115611e7a5760008081fd5b818901915060e0807fffffffffffffffffffffffffffffffffffffffffffffffffffffffffffffffe0848d03011215611eb35760008081fd5b611ebb610e0a565b611ec6888501611441565b81526040611ed58186016112ca565b898301526060611ee68187016112ca565b828401526080915081860151818401525060a08086015185811115611f0b5760008081fd5b611f198f8c838a01016111ba565b838501525060c0915081860151818401525082850151925083831115611f3f5760008081fd5b611f4d8d8a858801016111ba565b908201528652505050918301918301611e59565b600060208284031215611f7357600080fd5b815167ffffffffffffffff80821115611f8b57600080fd5b9083019060c08286031215611f9f57600080fd5b611fa7610dbe565b611fb0836112ca565b8152611fbe602084016112ca565b602082015260408301516040820152606083015182811115611fdf57600080fd5b611feb87828601611ce7565b60608301525060808301518281111561200357600080fd5b61200f87828601611e15565b60808301525060a08301518281111561202757600080fd5b612033878286016111ba565b60a08301525095945050505050565b6040815260006120556040830185611895565b8281036020840152610b8e8185611927565b600082601f83011261207857600080fd5b81516020612088610f04836112fa565b82815260059290921b840181019181810190868411156120a757600080fd5b8286015b8481101561143657805167ffffffffffffffff808211156120cc5760008081fd5b818901915060e0807fffffffffffffffffffffffffffffffffffffffffffffffffffffffffffffffe0848d030112156121055760008081fd5b61210d610e0a565b612118888501611441565b815260406121278186016112ca565b8983015260606121388187016112ca565b828401526080915081860151818401525060a0612156818701611186565b8284015260c09150612169828701611186565b908301529184015191838311156121805760008081fd5b61218e8d8a858801016111ba565b9082015286525050509183019183016120ab565b6000606082840312156121b457600080fd5b6040516060810167ffffffffffffffff82821081831117156121d8576121d8610d8f565b8160405282935084519150808211156121f057600080fd5b6121fc868387016111ba565b835261220a60208601611186565b6020840152604085015191508082111561222357600080fd5b50612230858286016111ba565b6040830152505092915050565b6000602080838503121561225057600080fd5b825167ffffffffffffffff8082111561226857600080fd5b908401906080828703121561227c57600080fd5b612284610e2d565b61228d836112ca565b815283830151828111156122a057600080fd5b8301601f810188136122b157600080fd5b80516122bf610f04826112fa565b81815260059190911b8201860190868101908a8311156122de57600080fd5b8784015b83811015612316578051878111156122fa5760008081fd5b6123088d8b838901016111ff565b8452509188019188016122e2565b50808886015250505050604083015193508184111561233457600080fd5b61234087858501612067565b6040820152606083015193508184111561235957600080fd5b612365878585016121a2565b60608201529695505050505050565b60006020828403121561238657600080fd5b815167ffffffffffffffff81111561239d57600080fd5b6107e8848285016121a256fea2646970667358221220b5c8c62cce47cfe4d1f6c8d2a1ff7c1ebf6f9b66b60981a24c13db17cd27bbdf64736f6c63430008150033",
    "linkReferences": {}
  },
  "methodIdentifiers": {
    "ADDRESSES_PROVIDER_V2()": "46916301",
    "APP_ID()": "c187bbc1",
    "IS_IMPERSONATION_MODE()": "a183dc27",
    "SISMO_CONNECT_LIB_VERSION()": "c9512d99",
    "config()": "79502c55",
    "deposit()": "d0e30db0",
    "getBalance(bytes)": "d0fc3501",
    "privateTransfer(uint256,address,bytes)": "249c06d5",
    "withdraw(uint256,bytes)": "030ba25d"
  },
  "id": 0
}